{
  "contractName": "Bgnetwork",
  "abi": [
    {
      "constant": true,
      "inputs": [
        {
          "name": "handle",
          "type": "string"
        },
        {
          "name": "city",
          "type": "bytes32"
        },
        {
          "name": "state",
          "type": "bytes32"
        },
        {
          "name": "country",
          "type": "bytes32"
        }
      ],
      "name": "getUsers",
      "outputs": [
        {
          "name": "",
          "type": "address[]"
        },
        {
          "name": "city",
          "type": "bytes32"
        },
        {
          "name": "state",
          "type": "bytes32"
        },
        {
          "name": "country",
          "type": "bytes32"
        }
      ],
      "payable": false,
      "stateMutability": "view",
      "type": "function"
    },
    {
      "constant": false,
      "inputs": [
        {
          "name": "handle",
          "type": "string"
        },
        {
          "name": "city",
          "type": "bytes32"
        },
        {
          "name": "state",
          "type": "bytes32"
        },
        {
          "name": "country",
          "type": "bytes32"
        }
      ],
      "name": "registerNewUser",
      "outputs": [
        {
          "name": "success",
          "type": "bool"
        },
        {
          "name": "city",
          "type": "bytes32"
        },
        {
          "name": "state",
          "type": "bytes32"
        },
        {
          "name": "country",
          "type": "bytes32"
        }
      ],
      "payable": false,
      "stateMutability": "nonpayable",
      "type": "function"
    },
    {
      "constant": true,
      "inputs": [
        {
          "name": "SHA256notaryHash",
          "type": "bytes32"
        }
      ],
      "name": "getImage",
      "outputs": [
        {
          "name": "",
          "type": "string"
        },
        {
          "name": "",
          "type": "uint256"
        },
        {
          "name": "state",
          "type": "bytes32"
        },
        {
          "name": "country",
          "type": "bytes32"
        }
      ],
      "payable": false,
      "stateMutability": "view",
      "type": "function"
    },
    {
      "constant": true,
      "inputs": [
        {
          "name": "userAddress",
          "type": "address"
        }
      ],
      "name": "getUser",
      "outputs": [
        {
          "name": "",
          "type": "string"
        },
        {
          "name": "",
          "type": "bytes32"
        },
        {
          "name": "",
          "type": "bytes32"
        },
        {
          "name": "",
          "type": "bytes32"
        },
        {
          "name": "",
          "type": "bytes32[]"
        }
      ],
      "payable": false,
      "stateMutability": "view",
      "type": "function"
    },
    {
      "constant": true,
      "inputs": [
        {
          "name": "userAddress",
          "type": "address"
        }
      ],
      "name": "getAllImages",
      "outputs": [
        {
          "name": "",
          "type": "bytes32[]"
        },
        {
          "name": "",
          "type": "bytes32"
        },
        {
          "name": "",
          "type": "bytes32"
        },
        {
          "name": "",
          "type": "bytes32"
        },
        {
          "name": "",
          "type": "bytes32[]"
        }
      ],
      "payable": false,
      "stateMutability": "view",
      "type": "function"
    },
    {
      "constant": false,
      "inputs": [
        {
          "name": "imageURL",
          "type": "string"
        },
        {
          "name": "SHA256notaryHash",
          "type": "bytes32"
        }
      ],
      "name": "addImageToUser",
      "outputs": [
        {
          "name": "success",
          "type": "bool"
        }
      ],
      "payable": false,
      "stateMutability": "nonpayable",
      "type": "function"
    },
    {
      "constant": true,
      "inputs": [
        {
          "name": "userAddress",
          "type": "address"
        },
        {
          "name": "SHA256notaryHash",
          "type": "bytes32"
        }
      ],
      "name": "getUserImages",
      "outputs": [
        {
          "name": "",
          "type": "bytes32[]"
        }
      ],
      "payable": false,
      "stateMutability": "view",
      "type": "function"
    },
    {
      "constant": true,
      "inputs": [
        {
          "name": "",
          "type": "uint256"
        }
      ],
      "name": "imagesByNotaryHash",
      "outputs": [
        {
          "name": "",
          "type": "bytes32"
        },
        {
          "name": "city",
          "type": "bytes32"
        },
        {
          "name": "state",
          "type": "bytes32"
        },
        {
          "name": "country",
          "type": "bytes32"
        }
      ],
      "payable": false,
      "stateMutability": "view",
      "type": "function"
    },
    {
      "constant": true,
      "inputs": [
        {
          "name": "userAddress",
          "type": "address"
        }
      ],
      "name": "getUserImages",
      "outputs": [
        {
          "name": "",
          "type": "bytes32[]"
        }
      ],
      "payable": false,
      "stateMutability": "view",
      "type": "function"
    }
  ],
  "bytecode": "0x6060604052341561000f57600080fd5b610f308061001e6000396000f300606060405260043610610082576000357c0100000000000000000000000000000000000000000000000000000000900463ffffffff168062ce8e3e14610087578063124b1789146100f15780636ced1ae91461018d5780636f77926b146102345780637b7284fc1461035b5780637f2a6a5c146103c5578063eb6bbd7814610447575b600080fd5b341561009257600080fd5b61009a6104d5565b6040518080602001828103825283818151815260200191508051906020019060200280838360005b838110156100dd5780820151818401526020810190506100c2565b505050509050019250505060405180910390f35b34156100fc57600080fd5b610173600480803590602001908201803590602001908080601f01602080910402602001604051908101604052809392919081815260200183838082843782019150505050505091908035600019169060200190919080356000191690602001909190803560001916906020019091905050610569565b604051808215151515815260200191505060405180910390f35b341561019857600080fd5b6101b260048080356000191690602001909190505061078e565b6040518080602001838152602001828103825284818151815260200191508051906020019080838360005b838110156101f85780820151818401526020810190506101dd565b50505050905090810190601f1680156102255780820380516001836020036101000a031916815260200191505b50935050505060405180910390f35b341561023f57600080fd5b61026b600480803573ffffffffffffffffffffffffffffffffffffffff1690602001909190505061087a565b604051808060200186600019166000191681526020018560001916600019168152602001846000191660001916815260200180602001838103835288818151815260200191508051906020019080838360005b838110156102d95780820151818401526020810190506102be565b50505050905090810190601f1680156103065780820380516001836020036101000a031916815260200191505b50838103825284818151815260200191508051906020019060200280838360005b83811015610342578082015181840152602081019050610327565b5050505090500197505050505050505060405180910390f35b341561036657600080fd5b61036e610ae1565b6040518080602001828103825283818151815260200191508051906020019060200280838360005b838110156103b1578082015181840152602081019050610396565b505050509050019250505060405180910390f35b34156103d057600080fd5b61042d600480803590602001908201803590602001908080601f0160208091040260200160405190810160405280939291908181526020018383808284378201915050505050509190803560001916906020019091905050610b43565b604051808215151515815260200191505060405180910390f35b341561045257600080fd5b61047e600480803573ffffffffffffffffffffffffffffffffffffffff16906020019091905050610d02565b6040518080602001828103825283818151815260200191508051906020019060200280838360005b838110156104c15780820151818401526020810190506104a6565b505050509050019250505060405180910390f35b6104dd610da6565b600480548060200260200160405190810160405280929190818152602001828054801561055f57602002820191906000526020600020905b8160009054906101000a900473ffffffffffffffffffffffffffffffffffffffff1673ffffffffffffffffffffffffffffffffffffffff1681526020019060010190808311610515575b5050505050905090565b6000803390506000600360003373ffffffffffffffffffffffffffffffffffffffff1673ffffffffffffffffffffffffffffffffffffffff1681526020019081526020016000206000018054600181600116156101000203166002900490501480156105d757506000865114155b156107805785600360008373ffffffffffffffffffffffffffffffffffffffff1673ffffffffffffffffffffffffffffffffffffffff1681526020019081526020016000206000019080519060200190610632929190610dba565b5084600360008373ffffffffffffffffffffffffffffffffffffffff1673ffffffffffffffffffffffffffffffffffffffff168152602001908152602001600020600101816000191690555083600360008373ffffffffffffffffffffffffffffffffffffffff1673ffffffffffffffffffffffffffffffffffffffff168152602001908152602001600020600201816000191690555082600360008373ffffffffffffffffffffffffffffffffffffffff1673ffffffffffffffffffffffffffffffffffffffff1681526020019081526020016000206003018160001916905550600480548060010182816107289190610e3a565b9160005260206000209001600083909190916101000a81548173ffffffffffffffffffffffffffffffffffffffff021916908373ffffffffffffffffffffffffffffffffffffffff1602179055505060019150610785565b600091505b50949350505050565b610796610e66565b600060016000846000191660001916815260200190815260200160002060000160016000856000191660001916815260200190815260200160002060010154818054600181600116156101000203166002900480601f01602080910402602001604051908101604052809291908181526020018280546001816001161561010002031660029004801561086a5780601f1061083f5761010080835404028352916020019161086a565b820191906000526020600020905b81548152906001019060200180831161084d57829003601f168201915b5050505050915091509150915091565b610882610e66565b600080600061088f610e7a565b600360008773ffffffffffffffffffffffffffffffffffffffff1673ffffffffffffffffffffffffffffffffffffffff168152602001908152602001600020600001600360008873ffffffffffffffffffffffffffffffffffffffff1673ffffffffffffffffffffffffffffffffffffffff16815260200190815260200160002060010154600360008973ffffffffffffffffffffffffffffffffffffffff1673ffffffffffffffffffffffffffffffffffffffff16815260200190815260200160002060020154600360008a73ffffffffffffffffffffffffffffffffffffffff1673ffffffffffffffffffffffffffffffffffffffff16815260200190815260200160002060030154600360008b73ffffffffffffffffffffffffffffffffffffffff1673ffffffffffffffffffffffffffffffffffffffff168152602001908152602001600020600401848054600181600116156101000203166002900480601f016020809104026020016040519081016040528092919081815260200182805460018160011615610100020316600290048015610a715780601f10610a4657610100808354040283529160200191610a71565b820191906000526020600020905b815481529060010190602001808311610a5457829003601f168201915b5050505050945080805480602002602001604051908101604052809291908181526020018280548015610ac757602002820191906000526020600020905b81546000191681526020019060010190808311610aaf575b505050505090509450945094509450945091939590929450565b610ae9610e7a565b6002805480602002602001604051908101604052809291908181526020018280548015610b3957602002820191906000526020600020905b81546000191681526020019060010190808311610b21575b5050505050905090565b6000803390506000600360008373ffffffffffffffffffffffffffffffffffffffff1673ffffffffffffffffffffffffffffffffffffffff168152602001908152602001600020600001805460018160011615610100020316600290049050141515610cf65760008451141515610ced5760006001600085600019166000191681526020019081526020016000206000018054600181600116156101000203166002900490501415610c1f5760028054806001018281610c039190610e8e565b9160005260206000209001600085909190915090600019169055505b836001600085600019166000191681526020019081526020016000206000019080519060200190610c51929190610dba565b504260016000856000191660001916815260200190815260200160002060010181905550600360008273ffffffffffffffffffffffffffffffffffffffff1673ffffffffffffffffffffffffffffffffffffffff1681526020019081526020016000206004018054806001018281610cc99190610e8e565b91600052602060002090016000859091909150906000191690555060019150610cfb565b60009150610cfb565b600091505b5092915050565b610d0a610e7a565b600360008373ffffffffffffffffffffffffffffffffffffffff1673ffffffffffffffffffffffffffffffffffffffff168152602001908152602001600020600401805480602002602001604051908101604052809291908181526020018280548015610d9a57602002820191906000526020600020905b81546000191681526020019060010190808311610d82575b50505050509050919050565b602060405190810160405280600081525090565b828054600181600116156101000203166002900490600052602060002090601f016020900481019282601f10610dfb57805160ff1916838001178555610e29565b82800160010185558215610e29579182015b82811115610e28578251825591602001919060010190610e0d565b5b509050610e369190610eba565b5090565b815481835581811511610e6157818360005260206000209182019101610e609190610eba565b5b505050565b602060405190810160405280600081525090565b602060405190810160405280600081525090565b815481835581811511610eb557818360005260206000209182019101610eb49190610edf565b5b505050565b610edc91905b80821115610ed8576000816000905550600101610ec0565b5090565b90565b610f0191905b80821115610efd576000816000905550600101610ee5565b5090565b905600a165627a7a72305820e60a82b0673c7932cdfc91c72f8f0f8e189bee1b1cda82555697bdaf3b88289f0029",
  "source": "pragma solidity ^0.4.17;\n\ncontract Bgnetwork {\n\n\taddress bgAdmin;\n\t\n\tmapping (bytes32 => notarizedImage) notarizedImages;\n\tbytes32[] imagesByNotaryHash;\n\n\tmapping (address => User) Users;\n\taddress[] usersByAddress;\n\n\tstruct notarizedImage {\n    \tstring imageURL;\n    \tuint timeStamp;\n  \t}\n\n  \tstruct User {\n    \tstring handle;\n    \tbytes32 city;\n    \tbytes32 state;\n    \tbytes32 country;\n    \tbytes32[] myImages;\n  \t}\n\n  \tfunction registerNewUser(string handle, bytes32 city, bytes32 state, bytes32 country) returns (bool success) {\n\t    address thisNewAddress = msg.sender;\n\t    // don't overwrite existing entries, and make sure handle isn't null\n\t    if(bytes(Users[msg.sender].handle).length == 0 && bytes(handle).length != 0){\n\t        Users[thisNewAddress].handle = handle;\n\t        Users[thisNewAddress].city = city;\n\t        Users[thisNewAddress].state = state;\n\t        Users[thisNewAddress].country = country;\n\t        usersByAddress.push(thisNewAddress);  // adds an entry for this user to the user 'whitepages'\n\t        return true;\n\t    } else {\n\t        return false; // either handle was null, or a user with this handle already existed\n\t    }\n\t  }\n\n\tfunction addImageToUser(string imageURL, bytes32 SHA256notaryHash) returns (bool success) {\n\t    address thisNewAddress = msg.sender;\n\t    if(bytes(Users[thisNewAddress].handle).length != 0) { // make sure this user has created an account first\n\t    \tif(bytes(imageURL).length != 0){  // prevent users from fighting over sha->image listings in the whitepages, but still allow them to add a personal ref to any sha             \n\t            if(bytes(notarizedImages[SHA256notaryHash].imageURL).length == 0) {\n\t            \timagesByNotaryHash.push(SHA256notaryHash); // adds entry for this image to our image whitepages\n\t            }\n\t            notarizedImages[SHA256notaryHash].imageURL = imageURL;\n\t            notarizedImages[SHA256notaryHash].timeStamp = block.timestamp; // note that updating an image also updates the timestamp\n\t            Users[thisNewAddress].myImages.push(SHA256notaryHash); // add the image hash to this users .myImages array\n\t            return true;\n\t        } else {\n\t        \treturn false; // either imageURL or SHA256notaryHash was null, couldn't store image\n\t        }\n\t        return true;\n\t    } else {\n\t       \treturn false; // user didn't have an account yet, couldn't store image\n\t    }\n  \t}\n\n  \t//getters\n  \tfunction getUsers() view public returns (address[]) { return usersByAddress; }\n\n\tfunction getUser(address userAddress) view returns (string, bytes32, bytes32, bytes32, bytes32[]) {\n\t\treturn (Users[userAddress].handle, Users[userAddress].city, Users[userAddress].state, Users[userAddress].country, Users[userAddress].myImages);\n\t}\n\n\tfunction getAllImages() view returns (bytes32[]) { return imagesByNotaryHash; }\n\n\tfunction getUserImages(address userAddress) view returns (bytes32[]) { return Users[userAddress].myImages; }\n\n\tfunction getImage(bytes32 SHA256notaryHash) view returns (string,uint) {\n\t\treturn (notarizedImages[SHA256notaryHash].imageURL, notarizedImages[SHA256notaryHash].timeStamp);\n\t}\n\n}",
  "sourcePath": "/Users/albert/ethereum/bgdemo/contracts/Bgnetwork.sol",
  "compiler": {
    "name": "solc",
    "version": "0.4.18+commit.9cf6e910.Emscripten.clang"
  },
  "schemaVersion": "1.0.1",
  "updatedAt": "2017-11-15T21:49:17.545Z"
}